:100000000C942A000C9447000C9447000C94470071
:100010000C9447000C9447000C9447000C94470044
:100020000C9447000C9447000C9447000C94470034
:100030000C9447000C9447000C9447000C94470024
:100040000C9447000C9447000C9447000C94470014
:100050000C94470011241FBECFE5D8E0DEBFCDBF12
:1000600010E0A0E6B0E0E2E4FEE002C005900D92F0
:10007000A038B107D9F720E0A0E8B0E001C01D9298
:10008000A038B207E1F70E9497060C941F070C9462
:100090000000EF92FF920F931F93CF93DF936FEFC8
:1000A00081E00E949F0580E6E82E80E0F82EC4E003
:1000B000DEE240E06C2F81E00E941B0600E010E0D1
:1000C00062E0600F83E00E947F0681110AC0F701A1
:1000D000E00FF11FD0818BE49DE10197F1F700C0A3
:1000E00000000F5F1F4F0430110551F741E06C2FE6
:1000F00081E00E941B06CF5F94E0E90EF11CC8303E
:10010000C1F68D2FDF91CF911F910F91FF90EF904E
:10011000089561E082E00E94770561E080E00E943E
:10012000770541E064E081E00E94AF0541E065E0D1
:1001300081E00E94AF0541E066E081E00E94AF05EA
:1001400041E067E081E00E94AF0540E062E083E0CB
:100150000E94AF0540E063E083E00E94AF0540E00D
:1001600064E083E00E94AF0540E065E083E00C942A
:10017000AF05CF93DF9300D000D0CDB7DEB70E949C
:10018000E3040E944900282F30E03C832B838B81BD
:100190009C818E97B1F39FE52AEE30E0915020408C
:1001A0003040E1F700C0000060E070E080E090E0E7
:1001B0000E946B058B819C818D97C9F48DE20E9412
:1001C000E1040E944900282F30E03C832B838B817F
:1001D0009C818E97B1F39FE52AEE30E0915020404C
:1001E0003040E1F700C00000772473941BC08B817E
:1001F0009C818B97B1F48BE20E94E1040E9449003C
:10020000282F30E03C832B838B819C818E97B1F328
:100210009FE52AEE30E0915020403040E1F700C0E9
:100220000000712C8B819C81C0970A9708F04CC00C
:10023000C12CD12C760110E0143050F58B810E9436
:10024000E104AAE0B0E0A70196010E9405076B0156
:100250007C012B813C81C20ED31EE11CF11C30E3DA
:10026000C31AD108E108F1084FE58AEE90E0415049
:1002700080409040E1F700C000000E944900282F14
:1002800030E03C832B838B819C818E97B1F313C02C
:100290009FE52AEE30E0915020403040E1F700C069
:1002A00000000E944900282F30E03C832B838B8183
:1002B0009C818E97B1F31F5F8B819C81C0970A97B9
:1002C00008F4BACF80E010C02B813C812A3231057E
:1002D00079F02F32310561F081E02D33310509F0DD
:1002E00080E0C12CD12C760131E0731210C007C020
:1002F00091E079121FC0C12CD12C760181E0F094DD
:10030000E094D094C094C11CD11CE11CF11C2B8141
:100310003C812334310561F43FE54AEE80E0315001
:1003200040408040E1F700C000000E94E30427CF76
:10033000813019F50E94E30461E070E081E090E013
:100340000E946B0580E790E00E94CE040E94490065
:1003500090E08E329105D1F32FE53AEE40E0215046
:1003600030404040E1F700C000008334910509F4BB
:10037000FAC10E94490090E0F8CF8B819C81C09720
:100380000A9738F40E944900282F30E03C832B83E1
:10039000F4CF3FE54AEE80E0315040408040E1F745
:1003A00000C000008B810E94E1041A822B813C81F5
:1003B0002334310509F4E3CE2D33310509F45BC252
:1003C0000E944900082F10E00E321105C9F33FE5E5
:1003D0004AEE80E0315040408040E1F700C000002C
:1003E0000D321105F9F48DE20E94E1049FE52AEE39
:1003F00030E0915020403040E1F700C000000E9402
:100400004900082F10E00E321105C9F34FE58AEEBE
:1004100090E0415080409040E1F700C00000662429
:10042000639420C00B321105E1F48BE20E94E104D9
:100430002FE53AEE40E0215030404040E1F700C067
:1004400000000E944900082F10E00E321105C9F388
:100450008FE59AEE20E0815090402040E1F700C007
:100460000000612CC801C0970A9708F052C0812C87
:10047000912C5401512C33E0351598F1802F0E94B6
:10048000E104AAE0B0E0A50194010E9405074B0138
:100490005C01800E911EA11CB11C40E3841A9108DE
:1004A000A108B1080E944900082F10E08FE59AEEDC
:1004B00020E0815090402040E1F700C000000E3263
:1004C000110529F40E944900082F10E0F8CF3FE5FC
:1004D0004AEE80E0315040408040E1F700C000002B
:1004E00010C09FE52AEE30E0915020403040E1F707
:1004F00000C000000E944900082F10E00E321105D4
:10050000C9F35394C801C0970A9708F4B4CF19826D
:100510000FC00A321105B9F00F321105A1F041E008
:1005200049830D33110509F01982812C912C540156
:100530000334110569F48FE59AEE20E08150904074
:100540002040E1F714C1812C912C540121E0298332
:1005500031E0631208C0B094A09490948094811C00
:10056000911CA11CB11CC801C0970A9728F40E94D5
:100570004900082F10E0F7CF4FE58AEE90E0415098
:1005800080409040E1F700C000000D33110509F0F4
:100590007DC08DE30E94E1042B813C812B3231052B
:1005A00029F4C80CD91CEA1CFB1C66C08B819C81F9
:1005B0008D9729F4C818D908EA08FB085DC02B817B
:1005C0003C812A32310549F4A7019601C501B401E5
:1005D0000E94A0066B017C014FC08B819C818F978C
:1005E00009F04AC091E079120BC0611014C0F09478
:1005F000E094D094C094C11CD11CE11CF11C0BC030
:1006000041E0641208C0B094A09490948094811C3E
:10061000911CA11CB11CC701B601A50194010E9447
:10062000E6061B012C0121E072120BC0611014C000
:10063000F094E094D094C094C11CD11CE11CF11C36
:100640000BC081E0681208C0B094A094909480948C
:10065000811C911CA11CB11CC701B601A50194010C
:100660000E94E60669017A0181149104A104B10493
:1006700031F431E03A8303C0212C312C210160E0B8
:1006800070E081E090E00E946B0503C0212C312CCA
:1006900021014A814130D9F486E790E00E94CE04DE
:1006A0000E94490090E08E329105D1F32FE53AEE99
:1006B00040E0215030404040E1F700C0000083346A
:1006C000910509F438CF0E94490090E0F8CF898164
:1006D000813011F50E94E30461E070E081E090E078
:1006E0000E946B0580E790E00E94CE040E944900C2
:1006F00090E08E329105D1F32FE53AEE40E02150A3
:1007000030404040E1F700C000008334910559F1CA
:100710000E94490090E0F9CFC114D104E104F10432
:1007200049F1C701B6010E9420052114310441049A
:10073000510461F50E944900282F30E03C832B834F
:100740008B819C818E97B1F39FE52AEE30E091502A
:1007500020403040E1F700C000008B819C81833451
:10076000910509F066C08BE49DE10197F1F700C0A7
:10077000000005CD711007C091E06912D2CF8DE263
:100780000E94E104CECF6110CCCFF9CF8EE20E945F
:10079000E10421E0621208C0B094A0949094809487
:1007A000811C911CA11CB11CAAE0B0E0A201910126
:1007B0000E940507A50194010E94E606622EA4E6A8
:1007C000B0E0A20191010E940507A50194010E94D9
:1007D000E606C9016AE070E00E94B0069C838B8344
:1007E000A8EEB3E0A20191010E940507A5019401C2
:1007F0000E94E606C9016AE070E00E94B0068C0122
:1008000080E3860D0115110549F42B813C81232BD2
:1008100069F00E94E1048B81805D08C00E94E104C0
:100820008B81805D0E94E10480E3800F0E94E104DF
:1008300081CF8D7F8D9731F08B819C818A97029734
:1008400008F0B4CD0E94E30460E070E080E090E046
:100850000E946B05C701B6010E9420058B810E9492
:10086000E1049FE52AEE30E0915020403040E1F76E
:1008700000C000009BCD60E070E081E090E00E944D
:100880006B05C701B6010E9420050E94490090E057
:100890008E329105D1F38334910509F464CF0E941F
:1008A000490090E0F8CFCF93C82F40E061E080E0AE
:1008B0000E941B0640E060E080E00E941B066C2F57
:1008C00082E00E949F0541E062E080E00E941B06FA
:1008D00089EF90E00197F1F700C0000040E062E08E
:1008E00080E00E941B0689EF90E00197F1F700C0BD
:1008F0000000CF910895CF93C82F41E061E080E0E0
:100900000E941B0640E060E080E00E941B066C2F06
:1009100082E00E949F0541E062E080E00E941B06A9
:1009200089EF90E00197F1F700C0000040E062E03D
:1009300080E00E941B0689EF90E00197F1F700C06C
:100940000000CF91089583ED90E30197F1F700C087
:10095000000088E30E94530489EF90E00197F1F7CB
:1009600000C000008FE00E94530489EF90E00197DF
:10097000F1F700C0000081E00E94530483EF91E092
:100980000197F1F700C0000086E00E94530489EF50
:1009900090E00197F1F700C0000008950F931F93B6
:1009A000CF938C01C0E0F801EC0FF11D808188230A
:1009B00021F00E947B04CF5FF6CFCF911F910F9162
:1009C00008950C947B0481E00C9453048F929F92C1
:1009D000AF92BF92CF92DF92EF92FF924B015C01F8
:1009E000E42FC12CD12C7601C394EE2351F0AAE060
:1009F000B0E0A70196010E9405076B017C01E15060
:100A0000F4CFC501B401A70196010E94C4064B01B1
:100A10005C01C701B6012AE030E040E050E00E94EE
:100A2000C406C501B4010E94C40680E3820FFF9092
:100A3000EF90DF90CF90BF90AF909F908F900895F0
:100A40008F929F92AF92BF92CF92DF92EF92FF92DE
:100A5000CF936B017C01611571058105910521F42E
:100A600080E30E947B040DC097FF0BC08DE20E94C3
:100A70007B04F094E094D094C094C11CD11CE11C80
:100A8000F11CA7019601C0E08AE0882E912CA12CD0
:100A9000B12C211531054105510541F0CA01B901BB
:100AA000A50194010E94C406CF5FF3CFCC2349F087
:100AB0004C2FC701B6010E94E6040E947B04C1507E
:100AC000F5CFCF91FF90EF90DF90CF90BF90AF9098
:100AD0009F908F900895811102C080E803C08130FB
:100AE00019F480EC860F01C080E80C945304611166
:100AF00010C0813041F028F0823039F0833039F075
:100B000008951ABA089517BA089514BA089511BA33
:100B10000895613099F4813049F028F0823049F02D
:100B2000833051F008958FEF8ABB08958FEF87BB14
:100B300008958FEF84BB08958FEF81BB08958130B6
:100B400041F028F0823039F0833039F008956BBBE2
:100B5000089568BB089565BB089562BB089541116F
:100B600044C08130A9F028F0823009F1833071F15E
:100B700008952AB381E090E001C0880F6A95EAF7F2
:100B8000982F909592239ABB9BB3892B8BBB08958A
:100B900027B381E090E001C0880F6A95EAF7982FAB
:100BA0009095922397BB98B3892B88BB089524B363
:100BB00081E090E001C0880F6A95EAF7982F909540
:100BC000922394BB95B3892B85BB089521B381E013
:100BD00090E001C0880F6A95EAF7982F90959223CC
:100BE00091BB92B3892B82BB0895413019F58130B6
:100BF00071F018F08330A9F008952AB381E090E0F5
:100C000001C0880F6A95EAF7822B8ABB089527B343
:100C100081E090E001C0880F6A95EAF7822B87BBDC
:100C2000089521B381E090E001C0880F6A95EAF74A
:100C3000822B81BB0895413061F5813079F028F035
:100C40008230A9F08330E1F008952BB381E090E089
:100C500001C0880F6A95EAF7822B2EC028B381E085
:100C600090E001C0880F6A95EAF7822B30C025B367
:100C700081E090E001C0880F6A95EAF7822B32C0CC
:100C800022B381E090E001C0880F6A95EAF7822BD9
:100C900034C0411133C0813089F028F08230C9F06E
:100CA000833011F108952BB381E090E001C0880FEB
:100CB0006A95EAF7809582238BBB089528B381E07B
:100CC00090E001C0880F6A95EAF78095822388BB7F
:100CD000089525B381E090E001C0880F6A95EAF796
:100CE0008095822385BB089522B381E090E001C006
:100CF000880F6A95EAF78095822382BB0895813038
:100D000049F030F0823041F0833079F480B305C08F
:100D100089B303C086B301C083B390E002C0959548
:100D200087956A95E2F7982F9170892F08950E9410
:100D300089000E94A3040E94B90080E090E0089519
:100D4000DB018F939F930E940507BF91AF91A29FF4
:100D5000800D911DA39F900DB29F900D11240895B9
:100D6000AA1BBB1B51E107C0AA1FBB1FA617B707D1
:100D700010F0A61BB70B881F991F5A95A9F78095ED
:100D80009095BC01CD010895A1E21A2EAA1BBB1BB0
:100D9000FD010DC0AA1FBB1FEE1FFF1FA217B30747
:100DA000E407F50720F0A21BB30BE40BF50B661F5D
:100DB000771F881F991F1A9469F760957095809521
:100DC00090959B01AC01BD01CF010895052E97FBC5
:100DD0001EF400940E94FD0657FD07D00E94C40631
:100DE00007FC03D04EF40C94FD06509540953095C9
:100DF00021953F4F4F4F5F4F089590958095709587
:100E000061957F4F8F4F9F4F08950E941007A59FB8
:100E1000900DB49F900DA49F800D911D11240895F5
:100E2000A29FB001B39FC001A39F700D811D11242B
:100E3000911DB29F700D811D1124911D0895F8948C
:020E4000FFCFE2
:100E42003738392F3435362A3132332D43303D2B62
:100E52004552524F5200554E444546494E45440074
:00000001FF
